:10000000F8FF0020110400006F2600006F2600009A
:100010006F2600006F2600006F2600006F2600008C
:100020006F2600006F2600006F2600006F2600007C
:100030006F2600006F2600006F2600006F2600006C
:100040006F2600006F2600006F2600006F2600005C
:10040000FFFFFFFFFFFFFFFFFFFFFFFFFEFFFFFFFD
:1004100062B605F00FFCFEE7DFF800F0B907001444
:10042000DFF800F0BB050014DFF800F0DB05001476
:10043000DFF800F0F3050014DFF800F00900001405
:1004400038B4DFF8883C1B88ADF800301400621E19
:10045000002C3AD00C782300491C00ACDBB2DD1133
:100460002C5D0470401C00ACC3F38015EDB22C5D14
:100470000470401C00ACC3F34015EDB22C5D047059
:10048000401C00ACC3F30015EDB22C5D0470401CA1
:1004900000ACC3F3C005EDB22C5D0470401C00AC91
:1004A000C3F38005EDB22C5D0470401C00ACC3F3B7
:1004B0004005EDB22C5D0470401C00ACDBB213F0C3
:1004C00001052C5D0470401CC0E731BC704780B54D
:1004D00000220121842000F085FE002200218520D9
:1004E00000F080FE00220121822000F07BFE00222D
:1004F0000021832000F076FE00220121802000F000
:1005000071FE00220021812000F06CFE4FF4966005
:10051000DFF8381C088001BD10B50020DFF8801B13
:1005200008600121842000F0B4FE0F2000F02CFFB1
:100530000021842000F0ADFE852000F001FF00289E
:10054000FAD0012000F092FF852000F0F9FE01288A
:100550000ED1012000F0C7FFDFF86C1B09684FF4D3
:100560007A7291FBF2F1B0FBF1F0B0F5FA5FEBD9E2
:10057000012000F0B8FFDFF8501B09684FF47A72D1
:1005800091FBF2F1B0FBF1F00400DFF8440B0078CE
:10059000022803DA0120DFF8381B0870012000F080
:1005A000D4FF0020DFF8F81A08600121822000F053
:1005B00070FE0F2000F0E8FE0021822000F069FEAE
:1005C000832000F0BDFE0028FAD0012000F04EFF8D
:1005D000832000F0B5FE01280ED1012000F083FF3A
:1005E000DFF8E41A09684FF47A7291FBF2F1B0FB7C
:1005F000F1F0B0F5FA5FEBD9012000F074FFDFF8FD
:10060000C81A09684FF47A7291FBF2F1B0FBF1F06D
:10061000A4B284420CD3012000F065FFDFF8A81AD1
:1006200009684FF47A7291FBF2F1B0FBF1F004002B
:10063000012000F08AFF0020DFF8641A0860012121
:10064000802000F026FE0F2000F09EFE002180207A
:1006500000F01FFE812000F073FE0028FAD0012078
:1006600000F004FF812000F06BFE01280ED1012074
:1006700000F039FFDFF8501A09684FF47A7291FBE5
:10068000F2F1B0FBF1F0B0F5FA5FEBD9012000F028
:100690002AFFDFF8341A09684FF47A7291FBF2F1FD
:1006A000B0FBF1F0A4B2A04215D2012000F01BFF74
:1006B000DFF8141A09684FF47A7291FBF2F1B0FB7B
:1006C000F1F00400DFF8080A0078022803DA0020BD
:1006D000DFF8FC190870012000F037FFA4B24FF4D6
:1006E000AA7000FB04F0022190FBF1F04FF47A7144
:1006F00090FBF1F0DFF8541A088010BD80B500239C
:1007000044F620620021022000F0CCFF002344F6D2
:1007100020620121022000F0C5FF002200210220FA
:10072000FFF77AFE002201210220FFF775FE01BDCE
:10073000DFF8380A0078002805D140F6C410DFF849
:10074000301A088004E040F6B830DFF8241A088038
:10075000704780B501F07CF900F027F801BD80B545
:10076000DFF8100A0078002805D0022811D009D33C
:10077000032815D018E000F018F80020DFF8F81969
:10078000087011E000F06CF80020DFF8EC19087038
:100790000AE000F027F90020DFF8DC19087003E018
:1007A0000120DFF8D419087001BD80B50023DFF8FF
:1007B000CC290021182001F0A3F90023DFF8C0297B
:1007C0000121182001F09CF90023DFF8B82902214B
:1007D000182001F095F9DFF8B0090078002803D05F
:1007E000022829D014D33AE00123DFF89029002110
:1007F000182001F085F9042001F0CCFA002806D178
:10080000002001F065F80120DFF86819087026E083
:100810000123DFF86C290121182001F071F904206F
:1008200001F0B8FA002806D1002001F051F80220AA
:10083000DFF84019087012E00123DFF8482902218F
:10084000182001F05DF9042001F0A4FA002806D177
:10085000002001F03DF80320DFF81819087001BDF1
:1008600080B50023DFF824290021002001F048F999
:100870000023DFF81C290121002001F041F90023A9
:10088000DFF810290221002001F03AF9DFF8080909
:100890000078002802D001280DD018E0012350A2D2
:1008A00000212A2001F02CF900234DA201212A2049
:1008B00001F026F90BE0002349A200212A2001F0D3
:1008C0001FF9012346A201212A2001F019F9DFF8BE
:1008D000CC080078002803D002283BD01DD34CE080
:1008E0000123DFF8A8280021002001F009F90420E5
:1008F00001F050FA00280FD1012339A200212A204B
:1009000001F0FEF8002336A201212A2001F0F8F8B8
:100910000020DFF8841808702FE00123DFF870282A
:100920000121002001F0ECF8042001F033FA002846
:100930000FD100232AA200212A2001F0E1F801238F
:1009400027A200212A2001F0DBF80120DFF8481857
:10095000087012E00123DFF83C280221002001F09A
:10096000CFF8042001F016FA002806D1002000F08C
:10097000AFFF0020DFF8FC17087001BD10B54FF481
:100980001672DFF81C18DFF81C08FFF759FD00206D
:100990003C2812DA002150290DDADFF8082850230C
:1009A00003FB00139A5CDFF80038502404FB00338B
:1009B000CA54491CEFE7401CEAE7DFF8EC0701F0F6
:1009C0002CF9042001F0E6F9002806D1002000F0FF
:1009D0007FFF0020DFF8D417087010BD0000000072
:1009E0002000000080B50023A2A20021002001F019
:1009F00087F80023A0A20121002001F081F8002344
:100A00009EA20221002001F07BF800239CA203217A
:100A1000002001F075F800239AA20421002001F0C3
:100A20006FF8002398A20521002001F069F8002347
:100A300096A20621002001F063F80023DFF8542776
:100A40000721002001F05CF8002391A20021402042
:100A500001F056F800238FA20121402001F050F848
:100A600000238DA20221402001F04AF800238BA22E
:100A70000321402001F044F8002388A204214020F3
:100A800001F03EF8002385A20521402001F038F84E
:100A9000002382A20621402001F032F800237FA229
:100AA0000721402001F02CF8DFF80407028800211C
:100AB000182001F081F8DFF8FC06028801211820D7
:100AC00001F07AF8DFF8840602880221182001F08C
:100AD00073F8DFF8E40602880321182001F06CF8AF
:100AE000DFF8D8060088DFF8D016098811FA80F2FE
:100AF0000421182001F060F8DFF8C40602880521FF
:100B0000182001F059F8DFF8BC0602680621182009
:100B100001F052F8DFF8580602880021582001F051
:100B20004BF8DFF8980602880121582001F044F8BC
:100B3000DFF8640602780221582001F03DF8DFF862
:100B400088060078002817D0022823D01BD3042859
:100B50002ED026D3062839D031D3082851D03CD303
:100B60000A285CD054D30C2867D05FD30E2872D0EB
:100B70006AD30F2876D07BE001233EA2002100201B
:100B800000F0BEFF74E001233BA20121002000F031
:100B9000B7FF6DE0012339A20221002000F0B0FF71
:100BA00066E0012336A20321002000F0A9FF5FE0E8
:100BB000012334A20421002000F0A2FF58E0012309
:100BC00031A20521002000F09BFF51E001232FA25C
:100BD0000621002000F094FF4AE00123DFF8B4254D
:100BE0000721002000F08CFF042001F0D3F800283A
:100BF00006D1002000F06CFE0020DFF878150870A8
:100C000036E0012322A20021402000F079FF2FE0EE
:100C1000012320A20121402000F072FF28E00123DF
:100C20001EA20221402000F06BFF21E001231BA245
:100C30000321402000F064FF1AE0012317A20421E1
:100C4000402000F05DFF13E0012314A205214020A5
:100C500000F056FF0CE0012310A20621402000F016
:100C60004FFF05E001230DA20721402000F048FFBF
:100C700001BD00005354450053504500554C5400ED
:100C800057554300444953004E554D00454E4300CF
:100C90004C494D00545552004D4F4400585858008F
:100CA00080B5DFF8D0040078002804D0022800F0D6
:100CB000A48051D392E1DFF8D0040078002803D05B
:100CC000022832D017D346E0002001F063F8002854
:100CD00004D10220DFF8B01408700BE0012001F00D
:100CE00059F8002806D1DFF8A0040078401CDFF88E
:100CF000981408702FE0002001F04CF8002807D16C
:100D0000DFF884040078401EDFF87C1408700BE0E4
:100D1000012001F03FF8002806D1DFF86C040078CC
:100D2000401CDFF86414087015E0002001F032F870
:100D3000002807D1DFF850040078401EDFF848147F
:100D4000087008E0012001F025F8002803D10020F8
:100D5000DFF83414087041E1DFF84004007800281F
:100D600003D0022832D017D346E0002001F012F859
:100D7000002804D10220DFF8241408700BE00120C1
:100D800001F008F8002806D1DFF810040078401CB4
:100D9000DFF8081408702FE0002000F0FBFF0028A7
:100DA00007D1DFF8F8030078401EDFF8F013087071
:100DB0000BE0012000F0EEFF002806D1DFF8DC0395
:100DC0000078401CDFF8D413087015E0002000F014
:100DD000E1FF002807D1DFF8C4030078401EDFF8E8
:100DE000BC13087008E0012000F0D4FF002803D1F4
:100DF0000020DFF8A8130870F0E0DFF8CC030078DB
:100E000000280ED0401E05282FD9801F54D0401E28
:100E100076D0401E052840F29780801F00F0BB80EE
:100E2000DCE0002000F0B6FF002804D10720DFF846
:100E30009813087018E0012000F0ACFF002807D1DB
:100E4000DFF884030078401CDFF87C1308700BE0A7
:100E5000032000F09FFF002806D1DFF86C03007824
:100E60000830DFF864130870B8E0002000F092FF4B
:100E7000002807D1DFF850030078401EDFF8481340
:100E8000087018E0012000F085FF002807D1DFF886
:100E900038030078401CDFF8301308700BE00320A3
:100EA00000F078FF002806D1DFF81C030078083036
:100EB000DFF81413087091E0002000F06BFF0028A9
:100EC00007D1DFF804030078401EDFF8FC12087039
:100ED00015E0012000F05EFF002804D10020DFF8BB
:100EE000E81208700BE0032000F054FF002806D140
:100EF000DFF8D40200780830DFF8CC1208706DE01B
:100F0000002000F047FF002804D10F20DFF8B812BE
:100F1000087018E0012000F03DFF002807D1DFF83D
:100F2000A8020078401CDFF8A01208700BE0022035
:100F300000F030FF002806D1DFF88C020078083876
:100F4000DFF88412087049E0002000F023FF002839
:100F500007D1DFF874020078401EDFF86C120870C9
:100F600018E0012000F016FF002807D1DFF8580232
:100F70000078401CDFF8501208700BE0022000F0EF
:100F800009FF002806D1DFF8400200780838DFF8B2
:100F90003812087022E0002000F0FCFE002807D183
:100FA000DFF824020078401EDFF81C12087015E0FC
:100FB000012000F0EFFE002804D10820DFF808121D
:100FC00008700BE0022000F0E5FE002806D1DFF8F3
:100FD000F80100780838DFF8F011087001BD80B51D
:100FE000DFF8D8010088DFF8D011098811FA80F005
:100FF0005649098888420DDB72B600F022F80020BD
:10100000334908704FF4FA7000F0EEF9FFF708FA70
:1010100062B615E0DFF89C01008840F2DC5188429E
:1010200004DA40F2DC50DFF88C110880DFF89C0114
:101030000078002802D1FFF7F3F901E000F032F860
:1010400001BD80B5DFF88401007800280FD1DFF8FA
:101050006401008800280AD04FF448720021022061
:10106000FFF7DAF9002201210220FFF7D5F918482D
:101070000078002802D0012806D00AE0FFF7D4F952
:1010800002201349087004E0FFF7D2F90320104949
:1010900008704FF4FA7000F0A7F901BD00000000DD
:1010A0004C39001480B5002200210220FFF7B4F96A
:1010B0004048028801210220FFF7AEF90120434990
:1010C000087001BD000000009C390014222A0000B5
:1010D000FF39001480B53E48007800280AD001206E
:1010E00001F098F837490860012001F0A1F80020CC
:1010F0003749087001BD38B50024364805685FF0EF
:10110000FF30344908601D2004002800E040C0077B
:1011100001D501F009F931BD80B501F027F9164874
:101120000078012801D1FFF729FCFFF785F901BDFF
:101130002948006850F002002749086027480068E5
:1011400050F002002549086070470000F43900148F
:1011500080B501201E490870FFF7DEF920480068BD
:1011600050F001001E49086001BD0000F93900146B
:1011700000090014FD390014FE390014306100002C
:101180004061000050610000FA39001474610000F1
:101190007C6100005C610000FD080014FC39001453
:1011A00074110014CC1300148C260014FD390014A3
:1011B00004090014FE080014F6390014060900148E
:1011C0000809001450390014FB390014F8390014D0
:1011D000003A0014A0900440248000400C8000409D
:1011E0000C71034070B504000D0016004FF48071BF
:1011F0002000C0B201F064F96DB2002D11D1604839
:10120000E4B2611150F821005D49E4B2621151F875
:1012100022104969012214F01F039A409143416151
:1012200036E05748E4B2611150F821005449E4B265
:10123000621151F822104969012214F01F039A40EB
:1012400011434161F6B2002E11D14D48E4B2611153
:1012500050F821000068012114F01F0291408843DA
:101260004749E4B2621151F82210086010E0444886
:10127000E4B2611150F821000068012114F01F024E
:10128000914008433E49E4B2621151F822100860CF
:1012900070BD38B504000D003948E4B2611150F852
:1012A0002100406914F01F010200CA40D00703D496
:1012B0006321344801F071F9EDB2002D11D13048AD
:1012C000E4B2611150F821000068012114F01F02FE
:1012D000914088432A49E4B2621151F82210086013
:1012E00010E02748E4B2611150F8210000680121A4
:1012F00014F01F02914008432149E4B2621151F8F1
:101300002210086031BD10B504001D48E4B261111F
:1013100050F82100406914F01F010200CA40D007B4
:1013200003D47B21174801F038F91548E4B2611164
:1013300050F82100012114F01F029140C16010BD3E
:1013400010B504000E48E4B2611150F82100406964
:1013500014F01F010200CA40D00703D58C210948B0
:1013600001F01BF90648E4B2611150F82100006950
:1013700014F01F010200CA4012F0010010BD00006D
:1013800020100014D85E000030B4134C246854F0D0
:101390008074114D2C60114C246854F001040F4DE1
:1013A0002C600F4C246821000E4C24684FF47A7591
:1013B00094FBF5F404FB00F423005C1822008A423D
:1013C00003D2074C2468A242FBD3054C2468944204
:1013D000FBD330BC70470000FCED00E0001000E0E3
:1013E000041000E09439001410B504002000441EDD
:1013F000002804D04FF47A70FFF7C6FFF6E710BD5F
:1014000038B504000D00002D03D124215B4801F004
:10141000C4F85B48006850F4000059490860002097
:1014200058490860681E584964B222015050564815
:1014300064B210EB0410C06850F00100524964B26D
:1014400011EB0411C860504864B210EB04108068BE
:10145000400840004C4964B211EB0411886003203D
:10146000494964B211EB0411886031BD44490968EF
:1014700051F40001424A1160424909688908890013
:10148000404A1160404940B211EB00118968490897
:1014900049003D4A40B212EB001291605FF0FF310B
:1014A000394A40B203019950374940B211EB00115B
:1014B000C96851F00101344A40B212EB0012D16008
:1014C000314940B211EB00118968490849002E4AA0
:1014D00040B212EB0012916001212B4A40B212EB94
:1014E00000129160704701005FF0FF30264B49B257
:1014F00013EB01135B68C01A0200234849B210EBDA
:101500000110C068C0071AD51F4849B210EB01107E
:10151000C06850F001001C4B49B213EB0113D860B6
:10152000194849B210EB0110806840084000164B82
:1015300049B213EB011398605FF0FF3004E012F141
:10154000010F00D1521E100070470F4940B211EB3D
:101550000011C96851F001010B4A40B212EB0012B0
:10156000D160094940B211EB00118968490849006E
:10157000054A40B212EB001291607047085F00000C
:101580003C800440007003400071034038B5040003
:101590000D0064B2002C03D0022C66D049D380E049
:1015A000DFF88002006850F08070DFF87812086081
:1015B0006DB2002D0BD0022D15D00ED3042D1ED0F0
:1015C00017D3062D27D020D3072D2AD02FE04FF494
:1015D0008061412000F074FF2AE04FF44071042044
:1015E00000F06EFF24E04FF44071052000F068FF2A
:1015F0001EE04FF48061442000F062FF18E0732188
:10160000DFF8240200F0C9FF12E04FF4806165208A
:1016100000F056FF0CE04FF48061662000F050FFB0
:1016200006E04FF48061672000F04AFF00E038E0F8
:1016300037E0DFF8F001006850F00070DFF8E411E7
:1016400008606DB2002D02D0012D06D00BE04FF4E2
:1016500040710C2000F034FF06E04FF440710D2083
:1016600000F02EFF00E01CE01BE0DFF8C001006886
:1016700050F08070DFF8B41108606DB2002D02D018
:10168000012D06D00BE04FF440710A2000F018FF46
:1016900006E04FF440710B2000F012FF00E000E084
:1016A000FFE731BD2DE9F84F04000D0016001F00C3
:1016B00064B2002C0DD064B2012C02D064B2022CB2
:1016C00002D16DB2022D04DBFC21DFF85C0100F0D9
:1016D00064FF290049B2200040B2FFF757FFDFF84E
:1016E000500100684FF47A71484380465FEA184021
:1016F000B0FBF6F08146002082461FFA89F9484681
:1017000050FA0AF0012802DB1AF1010AF5E75FFA44
:101710008AFABAF1080F05DB40F21711DFF8080169
:1017200000F03BFF404630FA0AF0B0FBF6F081468D
:1017300064B2002C03D0022C19D00CD323E01FFA82
:1017400089F919F1010000FB07F042F21071B0FBBA
:10175000F1F0834617E01FFA89F919F1010000FB47
:1017600007F042F21071B0FBF1F083460BE01FFA74
:1017700089F919F1010000FB07F042F21071B0FB8A
:10178000F1F08346FFE7DFF8AC0064B250F82400C4
:101790006DB210EBC500DFF89C1064B251F8241054
:1017A0006DB211EBC501C96831F00401C160DFF809
:1017B000840064B250F824006DB210EBC5002821FB
:1017C000C1605FFA8AFA1AF0070050F00800DFF8EB
:1017D000641064B251F8241008601FFA89F9DFF828
:1017E000540064B250F82400C0F808900020DFF8DC
:1017F000441064B251F82410C864DFF8380064B2B1
:1018000050F824006DB210EBC5001FFA8BFBC0F836
:1018100010B00020DFF81C1064B251F824104860AA
:10182000BDE8F18F3C800440A85E00003080044099
:101830009C3900141410001408210122DFF86433CD
:101840001A600022DFF860331A600A00511ED2B21B
:10185000002A15D0020604D50122DFF850331A60A1
:1018600003E00022DFF844331A600122DFF8383346
:101870001A6000BF0022DFF830331A604000E4E74E
:101880007047000008210022DFF818331A60002298
:10189000DFF814331A600A00511ED2B2002A16D0A3
:1018A000020604D50122DFF804331A6003E00022A7
:1018B000DFF8F8321A600122DFF8EC321A6000BF5C
:1018C0000022DFF8E4321A6000BF4000E3E770470F
:1018D00070B5040000200500EDB2082D17DAB5F14F
:1018E0005000C0B2FFF7CEFF0020FFF7CBFF102063
:1018F000FFF7C8FF00200600F6B2802E05DA2000B0
:10190000C0B2FFF799FF761CF6E76D1CE4E770BDE7
:1019100038B504000D00B5F15000C0B2FFF7B2FFBA
:10192000E4B2200950F01000C0B2FFF7ABFF14F092
:101930000F00FFF7A7FF31BD10B504002020FFF70F
:10194000A1FF2000C0B2FFF79DFF10BD10B504003D
:1019500054F04000C0B2FFF795FF10BD10B5040071
:101960008120FFF78FFF2000C0B2FFF78BFF10BD73
:1019700010B504008D20FFF785FF54F01000C0B2B1
:10198000FFF780FF10BD10B5040054F0A000C0B2F6
:10199000FFF778FF10BD10B5040054F0A400C0B2EA
:1019A000FFF770FF10BD10B5040054F0A600C0B2E0
:1019B000FFF768FF10BD10B50400A820FFF762FF15
:1019C0002000C0B2FFF75EFF10BD10B5040054F058
:1019D000AE00C0B2FFF756FF10BD10B5040054F0C2
:1019E000C000C0B2FFF74EFF10BD10B50400D320F9
:1019F000FFF748FF2000C0B2FFF744FF10BD10B54D
:101A00000400D520FFF73EFF2000C0B2FFF73AFFE9
:101A100010BD10B50400D920FFF734FF2000C0B27C
:101A2000FFF730FF10BD10B50400DA20FFF72AFFE2
:101A300054F00200C0B2FFF725FF10BD10B504003E
:101A4000DB20FFF71FFF2000C0B2FFF71BFF10BD18
:101A500010B5002201215020FFF7C4FB0022012114
:101A60005120FFF7BFFB002201215220FFF7BAFBF4
:101A7000002201215320FFF7B5FB00200400E4B24F
:101A8000C82C02DA00BF641CF9E70120484908604D
:101A90000020FFF79AFF8020FFF7B1FF3F20FFF7FC
:101AA0008AFF0020FFF7A1FF0020FFF74FFF04206F
:101AB000FFF75EFF0220FFF73FFF0120FFF763FF04
:101AC0000820FFF78AFF1020FFF7ADFFCF20FFF7B8
:101AD00045FFF120FFF79DFF4020FFF7AFFF0020FB
:101AE000FFF759FF0020FFF75EFF0120FFF76DFFB2
:101AF0000020FFF7EDFE00210020FFF709FF10BDD9
:101B00002DE9F84304000D0016001F00307800286E
:101B100046D0307820388146E4B27B2C02DB0020AE
:101B200004006D1C2900C9B22000C0B2FFF7F0FE0E
:101B3000FFB2012F18D1002080465FFA88F8B8F173
:101B4000060F11DA1B485FFA89F9062101FB09002B
:101B50005FFA88F818F8000090F0FF00C0B2FFF7B5
:101B60006BFE18F10108E8E7FFB2002F15D1002045
:101B700080465FFA88F8B8F1060F0EDA0D485FFA72
:101B800089F9062101FB09005FFA88F818F80000BE
:101B9000FFF752FE18F10108EBE7A41D761CB5E72C
:101BA000BDE8F1834C10FE434010FE434410FE4359
:101BB0004810FE43C05700002DE9FC4104000D0011
:101BC00090460026B8F1000F03D5D8F10008012097
:101BD000060000208DF8040003200700002F0CD41D
:101BE0000A2098FBF0F100FB1180303000A97854F6
:101BF0000A2098FBF0F87F1EF0E7F6B2012E02D122
:101C00002D208DF80000002300AA2900C9B2200071
:101C1000C0B2FFF775FFBDE8F3812DE9F84F04006E
:101C20000720050004200600002081465FFA89F99C
:101C3000B9F1500F38DA002080465FFA88F8EDB22B
:101C4000A8452ED24146C9B24846C0B2FFF760FE51
:101C5000002083465FEAC8000700002082465FFA42
:101C60008AFABAF1080F15DA5FFA8BFB5FEA5B0BB1
:101C70005FFA8AFA5AFA87F0502101FB00405FFAB6
:101C800089F919F80000012801D15BF0800B1AF1E5
:101C9000010AE4E75846C0B2FFF7CEFD18F101088B
:101CA000CBE719F10109C1E7002081465FFA89F904
:101CB000B9F1500F36DA4146C9B24846C0B2FFF713
:101CC00027FE002083465FEAC80007000020824606
:101CD0005FFA8AFAF6B2B24515D25FFA8BFB5FEA79
:101CE0005B0B5FFA8AFA5AFA87F0502101FB004039
:101CF0005FFA89F919F80000012801D15BF0800B27
:101D00001AF1010AE4E75FFA8BFBD6F108015846A5
:101D100083465BFA01FB5846C0B2FFF78DFD19F10F
:101D20000109C3E7BDE8F18F10B5040064B2082CC7
:101D30000DDA00220021224864B2205CFFF752FA3B
:101D400003211F4864B2205C00F0DCFB14E0082093
:101D500004002000441E40B200280DD000220021C3
:101D6000174864B2205CFFF73DFA0321144864B2BF
:101D7000205C00F0C7FBECE710BD10B50400104874
:101D800064B2205CFFF7DCFA002801D1002000E0FB
:101D9000012010BD10B50400200040B2FFF7EDFF98
:101DA00000280AD13220FFF71FFB200040B2FFF7C6
:101DB000E4FF002801D1002000E0012010BD000058
:101DC000BC100014012110F01F029140DFF87824AC
:101DD00040B2430942F8231070472DE9F44F82B016
:101DE00004000D001E009DF93070DDF83480DDF830
:101DF00038907FB2002F02D15FF0010A0DE07FB270
:101E0000012F02D15FF0020A07E07FB2022F02D158
:101E10005FF0040A01E05FF0100A7FB2002F07D1E3
:101E2000DFF82804854203D3DFF82404A84222D235
:101E30007FB2012F0BD1DFF81404854207D3DFF8FE
:101E40001404A84203D315F00300032813D17FB272
:101E5000022F0BD1DFF8F403854207D3DFF8F80334
:101E6000A84203D315F00300002804D04921DFF86D
:101E7000EC0300F092FBB8F5004F04D34B21DFF8E0
:101E8000DC0300F08AFBDFF8D803006850F00200A2
:101E9000DFF8CC130860DFF8CC03006850F00200D4
:101EA000DFF8C0130860DFF8C00364B261010D50B1
:101EB000029864B2610101F1804111F5104108619D
:101EC000002064B2610101F1804111F51041888068
:101ED0005FFA8AFA64B2600100F1804010F51040A8
:101EE000A0F814A07FB2380210F4E0607FB217F0BF
:101EF0000701084364B2610101F1804111F510410D
:101F0000C88040464004400C64B2610101F1804148
:101F100011F51041C88240464004400C64B2610192
:101F200001F1804111F51041C883D048006830F0BC
:101F30008000CE4908605FFA8AFA64B2600100F15D
:101F4000804010F51040C0F808A0002064B2610184
:101F500001F1804111F51041C8605FEAC97002D4F7
:101F6000D8F1000000E0002064B2610101F180417D
:101F700011F5104188614CF20A0064B2610101F16F
:101F8000804111F510418883F6B27009313050F06C
:101F90008000B74964B26054B6493000C0B200F066
:101FA0008FFAA80910F00700C0B24001834628004C
:101FB000103810F03F00C0B2C0008DF801009DF84D
:101FC000010010EB0B0B5FFA8AFA1BEBCA00401EF4
:101FD0008DF800009DF800005FFA8BFB58450ED38A
:101FE000002200215846C0B2FFF7FCF84FF481717F
:101FF0005846C0B200F064FA1BF1010BEAE79E48B4
:1020000000680121A14088439B4908609B48006803
:102010000121A140084399490860BDE8F78F2DE9E7
:10202000F84305000E00170098465FF000095FFABC
:1020300089F9B9F1000F01D101240EE05FFA89F9A5
:10204000B9F1010F01D1022407E05FFA89F9B9F172
:10205000020F01D1042400E01024B7F5004F02D391
:1020600047F6FF70070086486DB240F825707C483F
:10207000006850F002007A4908607A48006850F021
:102080000200784908607F4877496DB26A01505074
:102090007C486DB2690101F1804111F51041086180
:1020A00000206DB2690101F1804111F51041888075
:1020B00000206DB2690101F1804111F51041888263
:1020C0005FFA89F95FEA092010F4E0605FFA89F9A4
:1020D00019F0070108436DB2690101F1804111F562
:1020E0001041C88038004004400C6DB2690101F114
:1020F000804111F51041C8823800C005C00D6DB295
:10210000690101F1804111F51041C8835748006809
:1021100030F0800055490860E4B26DB2680100F10A
:10212000804010F51040846078426DB2690101F181
:10213000804111F51041C86000206DB2690101F1C4
:10214000804111F5104188610A206DB2690101F1E9
:10215000804111F510418883F6B27009313050F09A
:10216000800043496DB26854474800684FF40071DD
:10217000F6B2720991400843434908604348F6B2F9
:10218000711150F821004149F6B2721151F8221034
:102190004969012216F01F039A40914341613C486E
:1021A000F6B2711150F82100F6B216F01F015FFA75
:1021B00088F818F003025FFA88F85FEA9813DBB238
:1021C00053EA024252F4807240F82120F6B2002E07
:1021D00001D0012000E000202C49F6B2721151F824
:1021E00022102A4AF6B2731152F8232052690123B1
:1021F00013FA00F032EA000048611F48006801212C
:10220000A94008431C490860280040B2FFF7DAFDE6
:10221000BDE8F18301001A4849B250F8210049B2E3
:102220004A0102F1804212F51042D28A801A7047A8
:10223000134940B251F8201040B2420102F18042ED
:1022400012F51042D182704700E100E010F00F401B
:1022500013F10F4012F10F4010F10F40485E0000E3
:10226000408004403C8004400090004000800040DA
:1022700000100240000101000C800040248000405A
:10228000543900140C00044038800440201000141D
:1022900090100014012110F01F029140754A40B2C5
:1022A000430942F823107047012110F01F029140AA
:1022B000714A40B2430942F82310704710B5040038
:1022C0006E48046000F07DF80028FBD000F002F8B2
:1022D000002010BDE0B5012002904FF4167001906F
:1022E000002000901B236548026865490020FFF725
:1022F00074FD644800684008400062490860572047
:10230000FFF7D2FF6048006850F001005E490860A6
:102310000020FFF7BFFF5D491B2000F0D1F85C49AA
:102320001D2000F0CDF807BD80B55A4890F9000097
:10233000042814D10320574908705720FFF7B4FF31
:102340005FF00060544908604C48006853490860D9
:102350004C48006850F001004A49086005E05720E9
:10236000FFF7A2FF02204B49087001BD0120494937
:1023700008704548006850F0010043490860704704
:1023800080B50420434908705FF0FF30424908607F
:102390005720FFF77FFF3F4890F9000001280FD03A
:1023A0003C4890F900000228F5D104203949087012
:1023B0005FF0FF30384908605720FFF76BFFEAE70E
:1023C00001BD10B582B0002400208DF8000000F09F
:1023D00084F98021122000F093FA002804D13048BB
:1023E00000F020FB002043E03220FEF7FDFF0B222F
:1023F000012100A800F0BCFA002804D1294800F00F
:1024000011FB002034E09DF80010274800F00AFB83
:1024100026480178264800F005FB9DF80000212899
:1024200025D10020040021480078A4B280B2844263
:1024300018D22048A4B210EB440041781D48A4B241
:1024400010F8140080B200F05BFA002808D1194897
:10245000A4B210F81410184800F0E4FA002007E0C5
:10246000641CE0E7154800F0DDFA012000E00020E0
:1024700016BD000000E100E080E100E0A03900149A
:1024800050F00F400C800040248000400201020008
:1024900012010900C8100014A090044010900040E0
:1024A000B46000001C610000E05F00003011001407
:1024B00058600000CC100014CC60000004600000E4
:1024C00010B4294A12684FF40073C0B24409A34003
:1024D0001A43254B1A60254AC0B2431152F82320F3
:1024E000012310F01F04A340C2F8A0301F4AC0B25D
:1024F000431152F82320C0B210F01F0342F82310FA
:1025000010BC704710B4184A12684FF40073C0B280
:102510004409A3401A43144B1A60144AC0B2431131
:1025200052F82320012310F01F04A340C2F8A0306A
:1025300031F4E0610D4AC0B2431152F82320C0B219
:1025400010F01F0352F8232012F4E0621143074AEF
:10255000C0B2431152F82320C0B210F01F0342F85A
:10256000231010BC70470000388004409010001405
:10257000DFF800F051060014DFF800F06D060014DB
:10258000BFF34F8F4648006810F4E06045490843A8
:1025900043490860BFF34F8FFEE738B504000D00D4
:1025A000002000F051FA2A0021003F4800F03AFADA
:1025B000002000F066FA4FF47A70FEF715FFF2E79C
:1025C00038B504000D00210049B2042000F06BFB77
:1025D000200032BD10B500240420FFF7A5FB042025
:1025E000FFF7D8FB002841D1002000F02DFA04208D
:1025F000FFF7D0FB012801D101200400002000F0EA
:1026000040FA2A4800F00EFA4FF4FA70FEF7ECFE9A
:10261000E4B2012CEBD10420FFF7BCFB0028E6D18B
:102620000420FFF7B7FB002806D1002000F029FAAC
:102630006420FEF7D9FEF3E70420FFF7ABFB012887
:1026400006D1002000F01DFA3220FEF7CDFEF3E7A0
:10265000174800F0E7F9FFF78BFF6420FEF7C4FE90
:102660000020FFF789FFFFF78BFFC0E710BD10B513
:1026700010480468012000F0E7F9012000F001FA99
:102680000D48E4B20F2101FB0402E4B221000B4823
:1026900000F0C8F94FF47A70FEF7A6FEEDE70000EF
:1026A0000CED00E00400FA05BC5F000008610000CA
:1026B0003860000004ED00E00C090014D85D000053
:1026C00001B4BDF80000002805D0BDF80000401E90
:1026D000ADF80000F5E701B0704780B50122012197
:1026E0002820FEF77FFD012201212920FEF77AFD37
:1026F00023212820FFF706FF23212920FFF702FFCF
:1027000001BD80B501207A4908600120794908603F
:102710004FF4C870FFF7D4FF00207749086077486E
:102720000068002804D1012073490860002016E0E9
:1027300001207149086000206D4908604FF4C8709D
:10274000FFF7BEFF00206B4908606C480068002856
:1027500004D0012068490860002000E0012002BD8B
:1027600080B50020634908600020614908604FF48B
:10277000C870FFF7A5FF01205E4908604FF4C870DC
:10278000FFF79EFF01205A4908604FF4C870FFF719
:1027900097FF01BD80B50020564908604FF4C8700E
:1027A000FFF78EFF0020524908604FF4C870FFF712
:1027B00087FF01204F4908604FF4C870FFF780FF82
:1027C00000204C4908604FF4C870FFF779FF01BD45
:1027D00080B50020474908604FF4C870FFF770FFCC
:1027E0000120434908604FF4C870FFF769FF0120DA
:1027F000404908604FF4C870FFF762FF00203D4970
:1028000008604FF4C870FFF75BFF01BD80B5002082
:10281000384908600020384908604FF4C870FFF755
:102820004FFF0120334908604FF4C870FFF748FF9D
:1028300032480068002807D001202F490860002096
:102840002C490860002006E001202B490860002088
:1028500028490860012002BD38B505000824200081
:10286000441EC0B2002818D0280603D501202049F4
:10287000086002E000201E4908606D004FF4C87037
:10288000FFF71EFF01201B4908604FF4C870FFF7D7
:1028900017FF002017490860E1E731BD38B508246B
:1028A00000250020144908602000441EC0B2002802
:1028B00015D06D0000200F4908604FF4C870FFF775
:1028C000FFFE01200B4908604FF4C870FFF7F8FEC7
:1028D0000A4800680028E7D055F00105E4E7012028
:1028E00005490860002003490860EDB2280032BDA8
:1028F0002408FE432008FE43A40AFE43240AFE43A4
:1029000070B504000D0000262900C9B2200080B275
:1029100000F00AF8002805D1761CF6B2142EF3D187
:10292000002000E0012070BD38B504000D00FFF765
:10293000E8FE002801D1002019E04220FFF78CFFBB
:10294000FFF764FF002803D1FFF70AFF00200EE025
:102950002000C0B2FFF780FFFFF758FF2800C0B289
:10296000FFF77AFFFFF752FFFFF7FAFE012032BDB3
:10297000F8B504000D00160000273200D2B229007D
:1029800089B2200000F00AF8002805D17F1CFFB2B0
:102990001E2FF2D1002000E00120F2BD70B504002E
:1029A0000D001600FFF7ADFE002801D1002037E032
:1029B0004220FFF751FFFFF729FF002803D1FFF75F
:1029C000CFFE00202CE03000C0B2FFF745FFFFF73C
:1029D0001DFFFFF7C5FEFFF794FE002801D1002080
:1029E0001EE04320FFF738FFFFF710FF002803D158
:1029F000FFF7B6FE002013E0ADB2002D0DD0FFF7BB
:102A00004DFF2070ADB2012D02D1FFF7E1FE01E0D4
:102A1000FFF7C0FE641C6D1EEEE7FFF7A1FE01206C
:102A200070BD01000EB400B582B003A9009102464A
:102A300000AB0121034878440A3000F04DF906BC90
:102A40005DF810FBA136000010B5040064B2042C40
:102A500007DA012201210F4864B2205CFEF7C2FBB5
:102A60000EE0042004002000441E40B2002807D0DD
:102A700001220121074864B2205CFEF7B3FBF2E7B4
:102A800010BD10B50400034864B2205CFEF73BFCA7
:102A900010BD0000C41000142DE9F84304000D001F
:102AA00064B2002C08D0022C2CD018D3042C4FD0A8
:102AB0003BD3052C5FD071E0DFF80402006850F4CE
:102AC0008060DFF8FC1108604FF440716620FFF76A
:102AD000F7FC4FF440716720FFF7F2FC5EE0DFF88F
:102AE000E001006850F40060DFF8D41108604FF492
:102AF00040714320FFF7E4FC4FF440714420FFF79E
:102B0000DFFC4BE0DFF8B801006850F48050DFF8DC
:102B1000B01108604FF440716320FFF7D1FC4FF40F
:102B200040716220FFF7CCFC38E0DFF894010068C8
:102B300050F40050DFF8881108604FF440715020C5
:102B4000FFF7BEFC4FF440715120FFF7B9FC25E0C0
:102B5000DFF87001006850F48060DFF868110860E9
:102B60004FF440719820FFF7ABFC4FF4407199206F
:102B7000FFF7A6FC12E0DFF84C01006850F400609B
:102B8000DFF8401108604FF440718920FFF798FC8E
:102B90004FF440718820FFF793FCFFE7DFF828012E
:102BA00064B250F82400C07810F0F300DFF8181178
:102BB00064B251F82410C870434864B250F824003D
:102BC0008078414964B251F82410887064B2002CB6
:102BD00002D064B2012C06D13C4800684FF47A71EF
:102BE0004843814605E03A4800684FF47A7148430B
:102BF00081462801B9FBF0F00600B6B2B6F5005FD9
:102C000002DB41F6FF700600B9FBF5F0B6B2B0EB9F
:102C100006100700BFB2202F04DB40F203112D483D
:102C2000FFF7BBFC284864B250F82400007810F08D
:102C3000E0008046C6F3042050EA0800224964B24E
:102C400051F824100870204864B250F824004670EF
:102C50001D4864B250F82400807A10F0E0008046ED
:102C600017F01F0050EA0800174964B251F8241009
:102C70008872154864B250F82400007C50F0880037
:102C8000114964B251F8241008740F4864B250F826
:102C90002400C07850F00C000B4964B251F82410A5
:102CA000C870BDE8F183084A40B252F8202012797A
:102CB0001206F8D5044A40B252F82020D17170476C
:102CC0003480044028800440A41000149439001477
:102CD0009C390014385F00002DE9F04FA1B0804608
:102CE000002017461D4602910B900DF1440A6FF02B
:102CF00000490AE017F8011B0298C047002802901B
:102D000000F0A5820B98401C0B90387808B90B98FE
:102D10009FE22528EED100200590069007900890AC
:102D200009900A9001E040F0010017F8011F2029E6
:102D3000F9D023290DD02B2904D02D2906D03029F4
:102D40000AD00CE040F0020080B2EEE740F0040050
:102D5000FAE740F00800F7E740F01000F4E72A290E
:102D60000ED12968296051F8042B2960002A0D92A0
:102D700004D5514240F004000D9180B27F1C11E057
:102D800000210D9109E00D99494505D001EB810322
:102D900002EB430130390D917F1C3A78A2F13001EA
:102DA0000A29F0D339782E2903D04FF0FF310C9146
:102DB0001DE017F8011F2A2907D1296829607F1C07
:102DC00051F8042B29600C9211E000210C9109E0CC
:102DD0000C99494505D001EB810302EB43013039E1
:102DE0000C917F1C3A78A2F130010A29F0D3ADF89A
:102DF00038000FF6C020397800F06AFD08B117F8E6
:102E0000010B8DF83A009DF83A00682802BF397826
:102E10006829622005D06C2804BF38786C2803D15B
:102E200071208DF83A007F1C11A8049017F8014B0F
:102E3000B4F1250023D02038022840F2BB8013389B
:102E400000F0E0800B3800F04A81401E00F0238142
:102E5000401E022840F2AE80001F00F01C81401F7F
:102E600079D0401E00F0CE80401E24D0C01E0BD072
:102E7000801E00F0C780C01E00F0C48039E125200C
:102E80008DF8440001203DE12868286050F8046B6B
:102E9000286003960C9C002C04D5304600F024FDDD
:102EA000044606E022460021304600F039FD00B11C
:102EB000841B069427E1296829603C2451F8040BFF
:102EC00029600021CDE9000111A80390DDE900018E
:102ED000049E11B908B90C9AB2B10206120FA0EB08
:102EE00002123032D2B2631E3A2AA8BF273200093A
:102EF00040EA017009099A5508BF00281C4603D012
:102F0000039AA3199A42E8D3A0190390C4F13C0193
:102F10000C980691814209DA401A08904FF6EF7139
:102F2000BDF838000840ADF83800ECE0002840F16A
:102F3000EA809DF8380000F01400102840F0E3808B
:102F40000D98059A801A089A801A441A012CC0F22A
:102F5000DA800894D7E09DF83A0062281AD06828F1
:102F600006D06A280CD06C281CD0712808D019E033
:102F70002868286050F8041B28600B980880C2E07D
:102F80002868286050F8042B28600B98C117C2E904
:102F90000001B8E02868286050F8041B28600B98EE
:102FA0000870B0E02868286050F8041B28600B986F
:102FB0000860A8E02868C01D20F007022A60D2E956
:102FC000000108322A60CDE90001002902D50598E8
:102FD0002D210AE0BDF83800810702D505982B2184
:102FE00003E0C00705D50598202100F80A10401C11
:102FF000059011A8059908180390214600A800F033
:10300000E5F980E09DF83A006C280DD0712818BFD2
:103010006A2809D12868C01D20F007022A60D2E979
:10302000000108322A6005E02968296051F8040B84
:1030300029600021CDE900019DF83A00682803D1FC
:10304000DDE9000180B20BE0622803D1DDE9000177
:10305000C0B205E0742818BF7A2804D1DDE9000168
:103060000021CDE900019DF8380000072ED5DDE9EB
:103070000001002908BF002828D044F0200078284B
:1030800024D10598302100F80A10401C411C0591FC
:1030900000F80A401AE09DF83A00294600F0DCF8F2
:1030A000CDE90001002902DA05982D210AE0BDF8DA
:1030B0003800810702D505982B2103E0C00705D50C
:1030C0000598202100F80A10401C059011A80599C8
:1030D00008180390214600A800F0F5F813E001203D
:1030E00005902868286050F8041B28608DF844106B
:1030F00009E025208DF84400012005901CB18AF8D4
:103100000140022005900D980599401A0899401A2F
:103110000699401A0999401A0799401A0A99441ABF
:103120009DF83800400710D420208DF8400000267C
:1031300009E0012310AA00A9404600F0A3FB0028E3
:1031400040F08580761CA642F3DB059E0DF1440B12
:103150000AE01BF8011B0298C0470028029076D0B5
:103160000B98401C0B90761E002EF2D130208DF86B
:1031700040004FF0000B089E09E0012310AA00A9AF
:10318000404600F07FFB002861D10BF1010BB345F5
:10319000F3DB069EDDF80CB00AE01BF8011B029879
:1031A000C0470028029052D00B98401C0B90761E0E
:1031B000002EF2D130208DF840004FF0000B099E18
:1031C00009E0012310AA00A9404600F05BFB00289B
:1031D0003DD10BF1010BB345F3DB03980699079E34
:1031E00001EB000B09E01BF8011B0298C04702909D
:1031F00068B30B98401C0B90761E002EF3D1302044
:103200008DF840004FF0000B0A9E08E0012310AA41
:1032100000A9404600F036FBC8B90BF1010BB345DD
:10322000F4DB9DF8380040077FF56FAD20208DF866
:103230004000002600E0761CA642BFF666AD0123E2
:1032400010AA00A9404600F01DFB0028F3D04FF063
:10325000FF3021B0BDE8F08F622826D068281DD04D
:103260006A2808D06C2827D0712804D0742823D06D
:103270007A280CD020E00868C01D20F00700086004
:10328000D0E90023083008601946104670470A68E4
:103290000A6052F8040B0A60002170470A680A604D
:1032A00052F8040B0A6000B20BE00A680A6052F898
:1032B000040B0A6040B204E00A680A6052F8040B8A
:1032C0000A60C11770472DE9FA4E05460A462F6974
:1032D0006F2A08BF082405D041F02000782814BFC9
:1032E0000A2410243C26D5E90001642A18BF692A63
:1032F00081468A4605D1002903DAD9F100096AEB33
:103300004A0ABAF1000F08BFB9F1000F0CD1286BBF
:1033100050B9082C36D195F83800000732D5302046
:103320003B2687F83B002DE0E317484651462246EE
:1033300000F022FBA4FB0023A9EB02023032D2B240
:10334000A6F1010B3A2A5E4603DB9DF80030513BA3
:103350009A1881465FEA010A0BF8072008BFB9F105
:10336000000F03D0E868F1198842DDD3082C09D199
:1033700095F83800000705D5F05D302802D0761E9C
:103380003020F055C6F13C00A861F119E960296BC5
:10339000884208DA081A28624FF6EF71288F084031
:1033A0002887BDE8F38E00290ED595F8381001F076
:1033B0001401102908D1696B6A69891A2A6A891A65
:1033C0000E1A012EA8BF2E62BDE8F38E2DE9F34F31
:1033D0008BB0D0E90089006B002801AF48BF062000
:1033E00005D404BF41F02000672802D101200B99C9
:1033F000086340F2FF720B984168C1F30A50904293
:1034000020D1080302BF0B98006800280AD10B994D
:10341000032088619DF8300061381A2858D30FF2D4
:10342000A84109E00B99032088619DF830006138BC
:103430001A284AD30FF288410B98C068032200F083
:1034400013FB00E1012807DA0B9800F048FB012884
:1034500002DB00230026EDE00B9ADFF854B152683E
:1034600040F2FE3161F31E520B994A6040F2FE3188
:10347000461A404649460022002300F051FB38BF5F
:1034800089F0004936B247F297507043494990FBA2
:10349000F1F636B2C6F10707012F92461BDBF8079B
:1034A00007D552465B464046494600F051FB8046F0
:1034B00089465046594652465B467F1000F048FB0D
:1034C000002F82468B46EAD126E00FF2F031B3E7B7
:1034D0000FF2F031B0E77F420024374D12E0F807D9
:1034E00007D552465B462046294600F031FB04468C
:1034F0000D465046594652465B4600F029FB7F1068
:1035000082468B46002FEAD14046494622462B464A
:1035100000F0F0FB804689469DF830000B99DFF8FB
:103520009CB0096B40F02005662D0CBF06F10A0027
:1035300006204718142FA8BF132730208DF8040049
:103540000DF10504012F3BDB4046494600F0FEFC2F
:10355000014604F1080204234FF00A0CB1FBFCFC05
:103560000CEB8C04A1EB4401303102F8011C0A2160
:10357000BCFBF1FE0EEB8E04ACEB440430345B1E5E
:10358000714602F8024DE7D1083F012F02F108040D
:10359000D8DB00F0F1FC02460B464046494600F0FD
:1035A000F9FC00225B4600F0D3FA80468946CBE75F
:1035B00000002440A08601000000F03F84D797411E
:1035C0000DF10500201A0DF1050702E0401E761EE0
:1035D0007F1C39783029F9D0662D02D136B2711CA2
:1035E00003E0652D0CBF012100210B9A126B8B1893
:1035F0001BB29842B8BF03461BB219001AD48142CD
:1036000004DAC85D3528A8BF392000DA3020CA198D
:10361000521E00E05B1E12F80159491E8542F9D086
:10362000392802D1C85D401CC855002902D57F1E2B
:103630005B1C761C36B29DF830100B9800961BB2BE
:103640003A4600F003F80DB0BDE8F08F2DE9F047E1
:1036500086B006468A4690461D4600F078FD012D4C
:10366000406A376B90F8009002DA01250FF25C286F
:103670004AF02000BDF93840662808BF641C13D00A
:10368000672840F0888014F1040F73DBBC4271DAC4
:1036900096F83800641C000702D4BD42B8BF2F461C
:1036A00024B23F1B48BF002724B2F068B169012C47
:1036B00021DA4A1C30230B54012F03DA96F8381014
:1036C000090702D502F80090521CE742B8BF7C42BD
:1036D00024B2E7196142AF42B2617162B8BF3D46A0
:1036E000B3692DB2F5612A464146181800F0BCF9BD
:1036F000781BB062AFE00818A54216DA2A464146A8
:1037000000F0B2F9B1696918601B012FB1617062F4
:1037100003DA96F83800000705D5F06801F8009044
:10372000F069401CF061B76295E02246414600F026
:103730009BF9B06920182D1B012F03DA96F8381079
:10374000090703D5F16800F80190401CB0612DB263
:10375000AF42B8BF3D46F068B3692DB22A4604EBCC
:103760000801181800F080F9B0692818B061781BBA
:10377000706270E0BD4204DA96F83810090758BF4D
:103780002F467F1E48BF0027BAF1670F0CBF4FF0CE
:10379000650A4FF0450AB169F06818F8013B0B540F
:1037A0004A1C012F05DA96F83810090758BFB26194
:1037B00015D502F80090531C012FB3610FDB6D1E6D
:1037C0002DB2AF42B8BF3D462DB22A464146181829
:1037D00000F04AF9B0692818B061781B7062F0688F
:1037E000B1690918200081F800A004D42B2048708A
:1037F00001F1020804E02D224A7001F1020864423E
:10380000002502AF08E00A2200A800F0B9FC0198E8
:1038100007F8010B6D1C009C21B20129F3DA022D7F
:1038200006DA4AF02000652804BF302008F8010BB2
:103830004DB9302008F8010B07E06D1E02A8285C86
:10384000303008F8010B012DF7DAF068B16908187B
:10385000A8EB0000F06196F8380000F01400102882
:103860000DD17069B1690818716A0818F1690818F2
:10387000B16A0818716B8842BCBF081A306206B082
:10388000BDE8F087F8B504460D4616461F460020F1
:1038900004E0E86A401CE8627F1E002047B116F889
:1038A000011BA868A0470028A860F2D14FF0FF30A4
:1038B000F2BD0000686A6C747A4C00006E616E00A4
:1038C0004E414E00696E6600494E460030000000D1
:1038D0000278C9B28A421AB11CBF10F8012FF9E769
:1038E00018BF00207047000000F10103810704D0D9
:1038F00010F8011B89B18107FAD10268B2F10131D8
:10390000914311F0803F04BF50F8042FF6E710F800
:10391000011B11B110F8011BFBE7C01A7047000032
:10392000C9B2830706D0521E22D310F8013B994238
:10393000F7D11FE0083A13D302F1040241EA012152
:1039400041EA014150F8043B121F21BF4B40A3F153
:10395000013C2CEA030C1CF0803FF3D0C9B2001FDD
:10396000083210F8013B521E28BF91EA030FF8D825
:1039700018BF0120401E70471B4213D1094236D1A7
:103980002AB18446B0FBF2F002FB10C2704700F08F
:10399000FFBBFCD30022002370470B000200002174
:1039A00000207047904271EB030CF6D370B5B1FA6A
:1039B00081F4B3FA83F52C1BA340C4F1200532FA3D
:1039C00005F63343A2405FF00046E64002E05B08A4
:1039D0005FEA3202841A71EB030524BF20462946B0
:1039E0007641F4D302000B003000002170BD012AA3
:1039F000CFD970B5140C20D0B1FA81F4B2FA82F5A7
:103A0000C4F120046419B4F12006D6D3B2405FF0AB
:103A10000044F440002502E052085FEA3303C61A6E
:103A200071EB020E24BF3046714664416D41F3D301
:103A300002000B002000290070BD0C46B1FBF2F122
:103A400002FB11452D0445EA1045B5FBF2F402FBDB
:103A5000145580B240EA0545B5FBF2F002FB105266
:103A600040EA044070BD000062B38B0708D0521ECC
:103A700011F8013B00F8013B00F024808B07F6D1E0
:103A8000830740F0208000BF103A07D330B4B1E87C
:103A90003810103AA0E83810F9D230BC530724BFD0
:103AA000B1E80810A0E8081044BF51F8043B40F802
:103AB000043BD20724BF31F8022B20F8022B44BF6D
:103AC0000B7803707047083A07D3B1E80810083A3A
:103AD00040F8043B40F804CBF7D25307E4E730B496
:103AE000436803F0004201211B031B0B436004BF2A
:103AF0000368002B08D10DE00368DD0F45EA44049C
:103B000044605B000360491E4468E302F4D523036C
:103B10001B0B436043681A434260084630BC704741
:103B20004FF4001C1CEB410F94BF1CEB430F09E04A
:103B300041EA030C50EA4C0C52EA0C0C03D29942B5
:103B400008BF9042704714BF8B428242704700000A
:103B5000B0B581EA030C0CF0004C40F2FF7515EA99
:103B600011541DBF15EA1357AC42AF4239E0E419B6
:103B700023EA455343F48013C90241F0004141EA6E
:103B8000505EC7021100A7FB020200284FF00000A0
:103B9000EEFB01204FF00001E3FB072118BF42F0CC
:103BA0000102401800214941E3FB0E01A4F58064A5
:103BB0000F0302D252004041494154F101046CDD2F
:103BC000470872F1004250F1000051EB0451A1F599
:103BD00080115CBF41EA0C01B0BD4CEA05510020E8
:103BE000B0BD05EA1357AC4214BFAF4241E050EA02
:103BF000410E1CBF52EA430E02E061460020B0BDF8
:103C000024423C441BD15FEA070EF6D0090302BFF1
:103C100001460020AEF1140EB1FA81F7AEEB0704B5
:103C200001FA07FE0C37C7F1200100FA07F7C84078
:103C30004EEA000E23EA455343F48013A2E733F023
:103C40000043B3FA83F704BFB2FA82FE77440B3F16
:103C5000E41BB7F1200E2FBF02FA0EF3BB40C7F1F1
:103C6000200E22FA0EFE38BF43EA0E03BA40641C4F
:103C700082E750EA410E14BF52EA430E6FF0000192
:103C80004FF4001717EB430F8ABF194617EB410F8C
:103C9000B5E74CEA05510020B0BDD4F10104B4F100
:103CA00020070FDAC4F12007520828BF42F00102B2
:103CB00010FA07F501FA07F7E1BF2A43E04038435D
:103CC000E1400FE0352C98DCC7F1200452EA4002B5
:103CD00020FA07F218BF42F0010231FA07F0A140C2
:103CE0000A43002172F1004250F1000051EB0C0137
:103CF000B0BD00002DE9F04140F2FF7581EA030CF0
:103D00000CF0004C15EA11541DBF15EA1357AC42D4
:103D1000AF42E9E0BC41C1F31301C3F31303801ABE
:103D2000994143F4801304D2641E40004941801835
:103D30005941C90241EA5051B1FBF3F603FB161198
:103D4000A2FB0675D7EBC020A94102D2761E8018CF
:103D50005941C90241EA5051B1FBF3FE03FB1E1168
:103D6000A2FB0E75D7EBC020A94103D2AEF1010E24
:103D700080185941890241EA9051760546EA8E2E13
:103D8000B1FBF3F603FB1611A2FB0675D7EB8020FF
:103D9000A94102D2761E80185941C90241EA505108
:103DA0004EEA060EB1FBF3F603FB1611A2FB0675F5
:103DB000D7EBC020A94102D2761E80185941C90212
:103DC00041EA5051B1FBF3F703FB1711A2FB073592
:103DD000D3EBC020A94167F100070CBF004247F0B8
:103DE000010766F3D5274FEA1E31B80814F5806441
:103DF00014DDBD0775F1004250EB0E5051EB04513C
:103E000011F5801F5CBF41EA0C01BDE8F0814CF068
:103E10007F6141F0E0410020BDE8F081BD076D0801
:103E200040EA0E5041F48011D4F10104B4F12006AF
:103E30000ADAC4F120060200E04001FA06F3E1408C
:103E40001843B24015430EE0342C14DCC6F12004B4
:103E500045EA40056D0820FA06F2154321FA06F0FE
:103E6000A1400D43002175F1004250F1000051EBDB
:103E70000C01BDE8F08100205FEA0C01BDE8F08193
:103E8000CFB992185B41B3FA83F704BFB2FA82F656
:103E9000BF190B3FB7F120062FBF02FA06F3BB4054
:103EA000C7F1200622FA06F638BF3343BA401CB1E8
:103EB000E419641E2FE77F4231F00041B1FA81F42A
:103EC00004BFB0FA80F6A4190B3CB4F120062FBF52
:103ED00000FA06F1A140C4F1200620FA06F638BF28
:103EE0003143A0403C1B16E7AC421ABF05EA13570A
:103EF000AF4214E050EA41061CBF52EA4306BFE756
:103F000050EA4107304661461CBF41EA0551BDE811
:103F1000F08152EA430C08BFC143BDE8F0810020A4
:103F20004FF4001616EB410F98BF16EB430F08BF76
:103F300016EB410F24BFC14305E016EB430F0CBF46
:103F400061464CEA0551BDE8F0810000400D40EAB1
:103F5000C120490080F00D8040F00040490DA1F5DE
:103F60008061491C05D4D1F11F0154BFC840C0175E
:103F700070474FF000007047010000BF09D0B0FA51
:103F800080F18840C91CC1F58461090501EBD0218D
:103F900040057047F0B44FF0004591EA030F44BF6D
:103FA0006B4000F0F7B800BF841A71EB030604D22F
:103FB0006E40001BB141121973414FF4001C1CEB01
:103FC000410F34BF7CEB430684E00C0DA4EB135689
:103FD000362E7DDC012E43DC45EAC32343EA5253EF
:103FE00012BFD20292025B08240545EAC12141EAD0
:103FF0005051D2EBC020994125D407D1B0FA80F6B8
:1040000010FA06F164D00020203608E0B1FA81F6FB
:10401000B140C6F1200220FA02F21143B0404FEA4B
:10402000F474B4EB465434F001064FEA74040AD831
:10403000D6F50016760D04F00044F04061FA06F261
:104040005040F1404840C00A40EA415021F0004150
:1040500028BF5FEA500550F1000044EBD12137E062
:1040600045EAC323DB0A45EAC121C90AB6F12005A6
:104070000EDD42EA0242120CC5F1200603FA06F6F2
:10408000EB4042EA06056D42984161F100010DE006
:1040900062FA06F5F240554063FA06FC82EA0C0229
:1040A000F3405A406D42904161EB030111F4801FCF
:1040B00005D1641E620502D06D004041494121F4E2
:1040C0008011430875F1004350F1000041EB0451A9
:1040D000F0BC70471CEB410F15D223F0004352EAAD
:1040E00043060BD04FEA4C0CBCEB410F04D80C0D2F
:1040F000661E342EB7DDEBE7801A994150EA41067F
:1041000008BF0021E4E708BF1CEB430F28BF6FF096
:104110000001DDE780B5134800F0A6F80FF24C026D
:104120000FF244010160426241600FF24402826377
:1041300081600FF24402C16001614161816181626D
:10414000C16201634163C2630164416401BD10B592
:10415000044800F089F80446206808B9FFF7DAFF40
:10416000204610BD043A0014000000002E0000009C
:1041700066616C7365000000747275650000000074
:1041800091FBF2F303FB1211C0E90031704700000C
:1041900070470000841A71EB030603D2001BB14183
:1041A000121973414FF4001C1CEB410F34BF7CEB20
:1041B000430443E00C0DA4EB1356352E50DC45EAC6
:1041C000C323DB0A45EAC121C912B6F120050DDD82
:1041D00063FA05F6EB4086EA0305124218BF45F084
:1041E0000105C01851F100010CD213E062FA06F586
:1041F000F2405540F3415A40B340F3405A408018D2
:10420000594107D349085FEA30005FEA350528BF06
:1042100045F0010501F58011420875F1004250F1A9
:10422000000041EB0451F0BC4FF4001C1CEB410FAB
:1042300038BF70470020090D090570471CEB410F7E
:1042400010D252EA43060BD0BCEB410F05D80C0D3F
:10425000AB43661E342EB5DD02E0AB4380185941F6
:10426000F0BC7047F0BC704770470000DFF800F00A
:10427000856100002DE9F04FA5B00024002500263F
:1042800001A81421FFF7F2FF06A87821FFF7EEFF3F
:10429000002700208DF80000DFF8DC0500780028FA
:1042A00040F02681DFF8D005007800285FD100209B
:1042B00004000A2C14DA002005003C2D0EDA01A8B7
:1042C00030F81400DFF8B4150A2202FB0542515CF5
:1042D000401801A921F814006D1CEEE7641CE8E702
:1042E00000200400092C0CDA01A810EB44004088DF
:1042F00001A931F81410884201D2601C0700641C27
:10430000F0E7FFB2002F1FD101A8FFB230F817006D
:1043100043F6C431884217D1DFF864050088B0F550
:10432000487F06DD4FF44870DFF85415088000F030
:104330007AFADFF85005008840F65A21884200F0EA
:10434000C08100F08CFABCE1FFB2042F04DA38001F
:10435000C0B200F0D1F9B4E1FFB2062F04DB38009F
:10436000C0B200F0E6F9ACE100F0AEF9A9E100203E
:1043700004000A2C09DABDF81800DFF80015615CAA
:104380004018ADF81800641CF3E7012004003C2C31
:1043900021DA002005000A2D0EDA06A830F81400F4
:1043A000DFF8D8140A2202FB0452515C401806A917
:1043B00021F814006D1CEEE706A830F8140006A9D9
:1043C00011EB440131F8021C884202D220008DF822
:1043D0000000641CDBE79DF80000002820D106A83F
:1043E0009DF8001030F8110043F6C431884217D10F
:1043F000DFF88C040088B0F5487F06DD4FF4487084
:10440000DFF87C14088000F00EFADFF878040088EA
:1044100040F64261884200F0548100F014FA50E105
:104420005FF000085FF00909002004000A2C0EDA92
:10443000DFF848049DF800100A2202FB0141085CE5
:10444000FF2802D02000804601E0641CEEE70A2C21
:104450000FDADFF828049DF800100A2202FB014160
:10446000085CFF2803D12000401E814601E0641C47
:10447000EDE7DFF808049DF800105FFA88F858FAB5
:1044800081F111F800A0DFF8F4039DF800105FFA45
:1044900089F959FA81F111F800B000200400082CC4
:1044A00001DA641CFBE75FFA88F814EBC800B0F18E
:1044B000010800200400082C07DA5FFA8BFB58463D
:1044C0002041C00701D4641CF5E75FFA89F9D4EBF9
:1044D000C90010F101095FFA89F959FA88F002213F
:1044E00090FBF1F007003800C0B200F03FF9E8E0BF
:1044F000DFF884030078012840F0E3802820DFF80B
:1045000088130870B4F5167F80F2AF80DFF86C0373
:10451000205CFF2800F0A780A4460A2094FBF0F15D
:1045200000FB11400A2194FBF1F201FB1241020051
:104530000B005FF000095FF00A0E9CFBFEFE5FF0CF
:104540000A0808FB0E9EDFF834831EF808E0BEF16F
:10455000FF0F05D1B9F1090F02DA19F10109EAE7F4
:1045600048465FF00A0E9CFBFEFE5FF00A0808FB5F
:104570000E9EDFF808831EF808E0BEF1FF0F05D09D
:10458000B9F1090F02DA19F10109EAE749465FF0CA
:104590000A0E9CFBFEF80EFB18CE864507DB5FF08B
:1045A0000A0E9CFBFEF80EFB18CE714505DA5FF093
:1045B0000A0A94FBFAFAD0461EE0904201DA0200A1
:1045C000FFE78B4201DA0B00FFE75FF00A0EBCEB5E
:1045D0000C089CFBFEFC0EFB0C8C10EB0C0CB1EBE6
:1045E000000E5FF002089EFBF8FE1EEB0C0C1CF1A7
:1045F000010C1CF10A0C9CE75FF00A099CFBF9F91D
:10460000C14512DB964673450CDB4FF0FF09DFF81E
:104610006CA25FF00A0B0BFB08EB0BF80A901EF183
:10462000010EF0E718F10108E6E7DFF85C9299F86F
:104630000090BCEB040AB3EB020B0BFB0AFAD1456A
:1046400011DABCEB0409B3EB020A19FB0AF9DFF833
:1046500038A28AF800905FF00A0994FBF9FA09FB86
:104660001A494F46761C641C4CE7002E16D086482B
:104670000078292812DBFFB2042F04DA3800C0B218
:1046800000F03AF81DE0FFB2062F04DB3800C0B29C
:1046900000F04FF815E000F017F812E078480088B5
:1046A000B0F5487F05DD4FF448707549088000F08B
:1046B000BAF87448008840F65A21884201D000F0C8
:1046C000CEF825B0BDE8F08F80B56D48008840F287
:1046D000DC51884205DA40F2DC506949088000F07C
:1046E000A2F86A4800886749088066480288022163
:1046F000002000F097F901BD10B504006148008862
:1047000040F64261884213DAE4B2032C05DA5D48D0
:104710000088FA305B49088004E05A480088643019
:1047200058490880574802880221002000F07AF991
:1047300010BD10B504005348008840F65B21884244
:1047400013DBE4B2072C05DB4E480088FA384D49EC
:10475000088004E04B48008864384A49088049488A
:1047600002880221002000F05DF910BD10B50400A0
:10477000E4B2142C0EDA4348008810F5FA7040F6C3
:104780005B21884248DA3F48008810F5FA703D49BD
:10479000088041E0E4B2242C0CDA3A480088FA3070
:1047A00040F65B21884237DA36480088FA303549CE
:1047B000088031E0E4B23D2C0EDB32480088B0F5D1
:1047C000FA7040F64261884226DB2E480088B0F538
:1047D000FA702C4908801FE0E4B22D2C0CDB29482C
:1047E0000088FA3840F64261884215DB2548008887
:1047F000FA38244908800FE02448008821490880BD
:104800001F48008840F2DC51884205DA40F2DC5053
:104810001B49088000F007F81A480288022100208E
:1048200000F000F910BD80B5154802880021022073
:1048300000F0F8F800220121022000F0F3F8002037
:104840001349087001BD80B540F642600D490880EB
:104850000C4802880221002000F0E4F801BD80B578
:1048600040F65A20074908800648028802210020A5
:1048700000F0D8F801BD0000FD0800147411001408
:10488000FE08001404090014FC08001402090014B6
:10489000F8390014DFF800F09B250000F0205249A1
:1048A0000870514800780006FBD54F480078712108
:1048B000084201D0002000E0012070474B4800680A
:1048C00050F4002049490860474800780006FBD5AD
:1048D000F02045490870704710B582B00400A4B2BA
:1048E0004FF4805000FB04F000900920404908700C
:1048F0009DF802003F4908709DF801003E4908708C
:104900009DF800003D490870FFF7C8FF002801D15D
:1049100000200EE0A4B2002C0AD15FF0FF327FF03D
:1049200001034FF48161200080B200F003F800E041
:10493000012016BDF0B583B006000F0014001D0065
:10494000B6B24FF48050BFB200FB06700190BFB208
:10495000082097FBF0F101FB1071002903D0E92139
:104960002748FFF797FFBFB2B7F5805F03DDEB2164
:104970002348FFF78FFF9DF806001E4908709DF839
:1049800005001D4908709DF804001C49087000943A
:104990009DF803001B4908709DF802001A49087031
:1049A0009DF80100194908709DF800001849087029
:1049B00007200F49087000959DF8030015490870FD
:1049C0009DF80200144908709DF801001349087011
:1049D0009DF8000012490870FFF760FF002801D120
:1049E000002000E00120FEBD0000024004F0014074
:1049F0000700024006000240050002400400024099
:104A0000785E00000B0002400A00024009000240EC
:104A1000080002400F0002400E0002400D0002405C
:104A20000C0002402DE9F04104000D0016005FF07B
:104A3000000864B2002C0DD064B2012C02D064B224
:104A4000022C02D16DB2022D04DB4FF4A971304863
:104A5000FFF720FF64B2002C03D0022C15D00AD33C
:104A60001DE042F21170864204D340F257112848EB
:104A7000FFF710FF13E042F21170864204D340F2B8
:104A80005B112348FFF706FF09E042F211708642EE
:104A900004D340F25F111E48FFF7FCFEFFE71D48FC
:104AA00064B250F8240080688046B8F1000FF6D058
:104AB00064B2002C03D0022C15D00AD31DE018F1EB
:104AC000010000FB06F042F21071B0FBF1F00700AC
:104AD00013E018F1010000FB06F042F21071B0FB88
:104AE000F1F0070009E018F1010000FB06F042F2C6
:104AF0001071B0FBF1F00700FFE7064864B250F810
:104B000024006DB210EBC5000761BDE8F08100BF65
:104B1000A85E000014100014F0B4114E3668340082
:104B20000F4E366856F47F060D4F3E600E0616F0A7
:104B3000706656EA0076170517F470073E431F04A7
:104B400017F470273E43074F3E6000263500EDB254
:104B50009D4201D26D1CFAE7014E3460F0BC7047F3
:104B600000F00140448004400401DC05C4094E0CFF
:104B70004E0CF4012C0100000000000000000000B9
:104B80000000000000000000000000000000000025
:104B90000000000000004E6F6E4D61736B61626C2F
:104BA0006500000000486172644661756C74000025
:104BB000000000004D656D4D616E6167656D656E4D
:104BC0007400004275734661756C7400000000004B
:104BD000000055736167654661756C7400000000E4
:104BE00000000000000000000000000000000000C5
:104BF00000000000000000000000000000000000B5
:104C000000000000000000000000000000000000A4
:104C100000000000000000000000000000535643A8
:104C2000616C6C00000000000000000044656275CB
:104C3000674D6F6E69746F72000000000000000025
:104C40000000000000000000000050656E64535634
:104C50000000000000000000005379735469636B8A
:104C60000000000000000000444D41300000000042
:104C700000000000000000444D4131000000000031
:104C8000000000000000444D413200000000000020
:104C90000000000000444D4133000000000000000F
:104CA00000000000444D41340000000000000000FE
:104CB000000000444D4135000000000000000000ED
:104CC0000000444D413600000000000000000000DC
:104CD00000444D41370000000000000000000000CB
:104CE000444D413800000000000000000000004476
:104CF0004D41390000000000000000000000444D5C
:104D000041313000000000000000000000444D412F
:104D1000313100000000000000000000444D41312E
:104D20003200000000000000000000444D4131331B
:104D300000000000000000000000444D413134003C
:104D4000000000000000000000444D41313500002B
:104D50000000000000000000444D415F4572726F8A
:104D6000720000000000004D434D000000000000F4
:104D70000000000000004654464C00000000000007
:104D80000000000000526561645F436F6C6C6973E2
:104D9000696F6E004C56445F4C565700000000008F
:104DA0000000004C4C570000000000000000000014
:104DB00000005761746368646F67000000000000C2
:104DC00000524E47000000000000000000000000FC
:104DD000493243300000000000000000000000499C
:104DE000324331000000000000000000000053507A
:104DF000493000000000000000000000005350494E
:104E00003100000000000000000000005350493253
:104E1000000000000000000000000043414E305F31
:104E20004F525F4D425F6275660043414E305F42B4
:104E300075735F4F666600000043414E305F4572F8
:104E4000726F72000000000043414E305F54785F83
:104E50005761726E696E6743414E305F52785F579B
:104E600061726E696E6743414E305F57616B655F7B
:104E700055700000005265736572766564353100C7
:104E8000000000005265736572766564353200007B
:104E900000000043414E315F4F525F4D425F6275EB
:104EA000660043414E315F4275735F4F6666000096
:104EB0000043414E315F4572726F72000000000086
:104EC00043414E315F54785F5761726E696E67433C
:104ED000414E315F52785F5761726E696E67434130
:104EE0004E315F57616B655F55700000005265730E
:104EF000657276656435390000000000526573659F
:104F0000727665643630000000000055415254301E
:104F10005F52585F54580000000055415254305FB2
:104F200045525200000000000055415254315F527A
:104F3000585F54580000000055415254315F4552AB
:104F40005200000000000055415254325F52585F39
:104F500054580000000055415254325F45525200EF
:104F6000000000000055415254335F52585F5458BE
:104F70000000000055415254335F4552520000007A
:104F800000000055415254345F52585F545800009D
:104F9000000055415254345F455252000000000059
:104FA0000055415254355F52585F5458000000007C
:104FB00055415254355F45525200000000000041F7
:104FC00044433000000000000000000000004144A5
:104FD00043310000000000000000000000434D507D
:104FE000300000000000000000000000434D503180
:104FF0000000000000000000000000434D5032009F
:105000000000000000000000000046544D30000089
:1050100000000000000000000046544D3100000078
:10502000000000000000000046544D320000000067
:1050300000000000000000434D540000000000008C
:105040000000000000005254430000000000000077
:1050500000000000005265736572766564383300A5
:105060000000000050495430000000000000000023
:105070000000005049543100000000000000000012
:105080000000504954320000000000000000000001
:1050900000504954330000000000000000000000F0
:1050A00050444230000000000000000000000055A5
:1050B0005342300000000000000000000000555383
:1050C00042444344000000000000000000454E45FB
:1050D000545F313538385F54696D6572454E4554BB
:1050E0005F5472616E736D69740000454E45545F84
:1050F00052656365697665000000454E45545F451D
:1051000072726F72000000000049325330000000DC
:10511000000000000000000053444843000000006D
:105120000000000000000044414330000000000087
:105130000000000000004441433100000000000076
:10514000000000000054534930000000000000003F
:10515000000000004D434700000000000000000078
:105160000000004C5054696D6572000000000000A2
:10517000000052657365727665643130320000005C
:1051800000504F5254410000000000000000000099
:10519000504F525442000000000000000000005038
:1051A0004F52544300000000000000000000504F28
:1051B00052544400000000000000000000504F5214
:1051C00054450000000000000000000052657365B7
:1051D0007276656431303800000000526573657284
:1051E000766564313039000000005265736572766F
:1051F0006564313130000000005265736572766578
:105200006431313100000000526573657276656467
:105210003131320000000052657365727665643189
:105220003133000000005265736572766564313178
:105230003400000000526573657276656431313563
:105240000000000052657365727665643131360086
:105250000000005265736572766564313137000075
:105260000000526573657276656431313800000064
:105270000052657365727665643131390000000053
:10528000008003400090034000800B4000F00F407E
:1052900040F00F4080F00F40C0F00F4000F10F4091
:1052A00066000A1D32000701640007106E00040644
:1052B000780004088200040A8C00040C9600040E96
:1052C000A0000410AA000412B4000414BE000416C6
:1052D000C8000418D200041ADC00041CE100041DFC
:1052E000E600041EEB00041FF4000317FA00031885
:1052F000130101062C01021400010908009004406A
:1053000000A0044000B0044000C0044000D00440AD
:1053100000A0064000B0064000C0064000D0064095
:1053200000A00E4000B00E404C4F4E4D4B6D4E4F06
:1053300034353637010000000D41118109030CD0CE
:105340001240173F185019031A783200A00A63E080
:10535000ACFF650C6600670029142C1E2A007E0C29
:105360007F16802A814E8261836F847B8586868E3C
:10537000879788A489AF8AC58BD78CE88D204A008F
:10538000491347084B144C17460522992303A604DA
:105390009B009C30AB069E119F0200003100000074
:1053A00002040101A4390014F4390014A4390014D2
:1053B000A4390014A43900147111001458110014F8
:1053C00000000000000000000000000000000000DD
:1053D00000000000000000000000000000000000CD
:1053E00000000000DFF800F0AD080014DFF8B4138F
:1053F00040B231F8201040B20128C0F2788140B2AA
:10540000162880F274810022DFF89C331A7089B26A
:10541000652904DA0022DFF890335A707DE089B202
:10542000C92904DA0122DFF880335A7075E089B2A5
:10543000B1F5967F04DC0222DFF86C335A706CE021
:1054400089B2B1F5C87F04DC0322DFF85C335A70FF
:1054500063E089B2B1F5FA7F04DC0422DFF8483357
:105460005A705AE089B2B1F5167F04DC0522DFF8E4
:1054700038335A7051E089B2B1F52F7F04DC06222F
:10548000DFF824335A7048E089B2B1F5487F04DC74
:105490000722DFF814335A703FE089B2B1F5617F1B
:1054A00004DC0822DFF800335A7036E089B2B1F527
:1054B0007A7F04DC0922DFF8F0325A702DE089B2DD
:1054C00040F24D42914203DA0A22B74B5A7024E06F
:1054D00089B2B1F5966F03DC0B22B34B5A701CE016
:1054E00089B240F21552914203DA0C22AE4B5A7047
:1054F00013E089B2B1F5AF6F03DC0D22AA4B5A70ED
:105500000BE089B240F2DD52914203DA0E22A64B43
:105510005A7002E00F22A44B5A7089B2332903DA81
:105520000022A14B9A7071E089B2652903DA012249
:105530009D4B9A706AE089B2972903DA02229A4B4E
:105540009A7063E089B2C92903DA0322964B9A70F4
:105550005CE089B2FB2903DA0422934B9A7055E090
:1055600089B2B1F5967F03DC05228F4B9A704DE02E
:1055700089B2B1F5AF7F03DC06228B4B9A7045E010
:1055800089B2B1F5C87F03DC0722874B9A703DE0F2
:1055900089B2B1F5E17F03DC0822834B9A7035E0D4
:1055A00089B2B1F5FA7F03DC09227F4B9A702DE0B6
:1055B00089B240F22722914203DA0A227A4B9A708A
:1055C00024E089B2B1F5167F03DC0B22764B9A708A
:1055D0001CE089B240F28B22914203DA0C22724B1A
:1055E0009A7013E089B2B1F52F7F03DC0D226E4B68
:1055F0009A700BE089B240F2EF22914203DA0E2258
:10560000694B9A7002E00F22674B9A7089B21A298F
:1056100003DA0022644BDA7069E089B2332903DAD5
:105620000122614BDA7062E089B24C2903DA02226E
:105630005D4BDA705BE089B2652903DA03225A4BCD
:10564000DA7054E089B27E2903DA0422564BDA700C
:105650004DE089B2972903DA0522534BDA7046E010
:1056600089B2B02903DA06224F4BDA703FE089B2E3
:10567000C92903DA07224C4BDA7038E089B2E229F3
:1056800003DA0822484BDA7031E089B2FB2903DAE9
:105690000922454BDA702AE089B2B1F58A7F03DA34
:1056A0000A22414BDA7022E089B2B1F5967F03DC21
:1056B0000B223D4BDA701AE089B2B1F5A37F03DA11
:1056C0000C22394BDA7012E089B2B1F5AF7F03DCFE
:1056D0000D22354BDA700AE089B2B1F5BC7F03DAEE
:1056E0000E22314BDA7002E00F222F4BDA70704736
:1056F00010B50400200040B2FFF778FE2B48007878
:1057000010F0FD00294908702848007850F010007A
:1057100026490870B8202649087026480078C00637
:10572000FBD424480078C0F38100C0B20228F8D12D
:105730001D48C3781C4882781B4841781A48007875
:10574000FFF750FE174864B210EB8400807810F029
:10575000070019490870134864B210EB8400C07840
:1057600010F01F0050F040001449087011480078F4
:105770008006FBD50F4800784006FBD50C48007822
:1057800010F03F000A4908700A480078C0F3810011
:10579000C0B20328F8D1034864B230F82400C0B284
:1057A00010BD0000341000148C100014014006409D
:1057B00000400640064006400440064005400640C2
:1057C0000000000000000000002F000000000700A3
:1057D000070000147F147F1400242A7F2A1200621D
:1057E00064081323003649552250000005030000C9
:1057F00000001C224100000041221C000014083E51
:1058000008140008083E0808000000A06000000816
:10581000080808080000606000000020100804026A
:10582000003E5149453E0000427F40000042615128
:105830004946002141454B31001814127F100027C2
:1058400045454539003C4A49493000017109050385
:1058500000364949493600064949291E00003636B6
:105860000000000056360000000814224100001419
:1058700014141414000041221408000201510906F6
:1058800000324959513E007C1211127C007F494977
:105890004936003E41414122007F4141221C007FA8
:1058A00049494941007F09090901003E4149497AB6
:1058B000007F0808087F0000417F41000020404130
:1058C0003F01007F08142241007F40404040007F9C
:1058D000020C027F007F0408107F003E4141413EE0
:1058E000007F09090906003E4151215E007F091928
:1058F00029460046494949310001017F0101003F25
:105900004040403F001F2040201F003F4038403FA4
:105910000063140814630007087008070061514908
:10592000454300007F4141000002040810200000B0
:1059300041417F0000040201020400404040404019
:10594000000001020400002054545478007F4844B1
:10595000443800384444442000384444487F0038E8
:105960005454541800087E0901020018A4A4A47C11
:10597000007F080404780000447D400000408084DB
:105980007D00007F102844000000417F4000007C23
:1059900004180478007C080404780038444444382F
:1059A00000FC242424180018242418FC007C08047B
:1059B000040800485454542000043F444020003C54
:1059C0004040207C001C2040201C003C4030403CDB
:1059D000004428102844001CA0A0A07C004464546B
:1059E0004C4414141414141457480068C0F30220D3
:1059F0007047012110F01F029140544A40B2430900
:105A000042F82310704710B440B2002808D50A01AC
:105A10004F4B40B210F00F04E31803F8042C03E0DE
:105A20000A014C4B40B2C25410BC704770B4030022
:105A300013F00704D4F10706052E01D3042001E07A
:105A4000D4F10700261D072E01D2002500E0E51E37
:105A5000012616FA00F0401E0840A8400121A94086
:105A6000491E1140084370BC704780B500F00FF824
:105A700000F07EF8FCF784FCFBF72CFBFBF7AFFA99
:105A8000FBF70EF9FAF754FEFAF769FEF2E780B574
:105A9000FAF75FFEFAF732FE5FF4E1310420FCF71B
:105AA000FBFF40F64E43C82202210020FBF7FAFD1F
:105AB000FAF70DFD2848FCF701FC222347F6FF7298
:105AC00045210120FCF7ABFA002201214F20FBF712
:105AD00089FB2249672000F096F85720FFF789FFDD
:105AE0001F480068322101FB00F10020FBF788FC11
:105AF0001C49542000F087F84420FFF77AFF00216A
:105B00003520FFF780FF01214420FFF77CFFFFF7DE
:105B10006BFF01220221FFF789FF01005720FFF7E9
:105B200072FFFFF761FF02220221FFF77FFF0100F2
:105B30000020FFF768FF0C49102000F064F80B49C3
:105B4000112000F060F801BD0CED00E000E100E084
:105B500018ED00E000E400E074110014F7100000FC
:105B60009C3900145111000019110000311100007E
:105B700080B5002200216020FBF734FB00220021C9
:105B80006120FBF72FFB002200216220FBF72AFB9C
:105B9000002200216320FBF725FB00220021642066
:105BA000FBF720FB002200216520FBF71BFB0022F6
:105BB00000216620FBF716FB002200216720FBF77F
:105BC00011FB0020FCF7B0F80120FCF7ADF8022033
:105BD000FCF7AAF80320FCF7A7F80420FCF7A4F8C8
:105BE00001BD000010B504004FF4007094FBF0F10B
:105BF00001FB1041002903D01E210B48FCF7CDFC0E
:105C00000A48046010BD38B504000D00074800685C
:105C10000749884203D030210348FCF7BEFC044802
:105C200064B240F8245031BD685F000008ED00E028
:105C30000000FF1F80B500F08FF800F025F800F09D
:105C400005F8FCF7C7FCFFF710FFFEE780B50C2056
:105C5000FFF74EFD32490860314800684FF47A7111
:105C60004843304908602F4800682F490968C1F34C
:105C70000361491CB0FBF1F02C4908605FF4E1318D
:105C80000420FCF709FF01BD2DE9F8432848294904
:105C900088420DD000208046B8F5826F08D2254892
:105CA00050F82800224941F8280018F10108F3E7CC
:105CB0001F48FFF797FF20480700204806002048AC
:105CC0000400A01B80464046B0F10108002804D023
:105CD00030783870761C7F1CF5E71A4881461A48E0
:105CE0000500B5EB090080464046B0F101080028E8
:105CF00005D0002089F8000019F10109F4E71348E4
:105D00001349144A531A98464346B3F10108002B2D
:105D100004D00B780370491C401CF5E7BDE8F18303
:105D20009839001494390014448004409C390014BC
:105D30000000FF1F00000000FC080014684B00007A
:105D4000E453000074110014043A0014000000141D
:105D50006C420000684B000080B500F008F80C4869
:105D600000884FF6FE7108400949088001BDEFF335
:105D7000118072B64CF22051064A11804DF628115E
:105D8000044A1180C0B2002800D162B670470000FA
:105D9000002005400E20054019E050F8041BCB07F9
:105DA00044BFA9F101035918121F0023042A41F826
:105DB000043BF9D25FEA827C0B4604D54FF0000C1D
:105DC000A1F800C09B1CD10744BF0021197050F8F6
:105DD000042B002AE1D170470A2A2A2A2A64656620
:105DE00061756C745F69737220656E746572656449
:105DF000206F6E20766563746F722025642A2A2ACC
:105E00002A2A0A0A257320496E74657272757074A5
:105E10000000000000B500BF1300964694461039FC
:105E200028BFA0E80C50FAD85FEA417C28BF0CC01C
:105E300048BF40F8042BC90728BF20F8022B48BFF1
:105E400000F8012B00BD0000453A5CB7C9CBBCBFD0
:105E5000A8B6FBD7CAC1CF5C5975655965202831F2
:105E6000295C436869705C7372635C4D4B36305FCC
:105E7000646D612E63000000453A5CB7C9CBBCBFBE
:105E8000A8B6FBD7CAC1CF5C5975655965202831C2
